{
  "address": "0xb245cFb8601D72d999c4d2A0326737867b1C6994",
  "contractName": "FarmerContract",
  "abi": [
    {
      "constant": true,
      "inputs": [
        {
          "internalType": "address",
          "name": "",
          "type": "address"
        }
      ],
      "name": "farmers",
      "outputs": [
        {
          "internalType": "bytes32",
          "name": "ipfsHash",
          "type": "bytes32"
        },
        {
          "internalType": "uint256",
          "name": "trust",
          "type": "uint256"
        },
        {
          "internalType": "uint256",
          "name": "reviewers",
          "type": "uint256"
        }
      ],
      "payable": false,
      "stateMutability": "view",
      "type": "function"
    },
    {
      "constant": true,
      "inputs": [
        {
          "internalType": "address",
          "name": "",
          "type": "address"
        },
        {
          "internalType": "uint256",
          "name": "",
          "type": "uint256"
        }
      ],
      "name": "items",
      "outputs": [
        {
          "internalType": "bytes32",
          "name": "ipfsHash",
          "type": "bytes32"
        },
        {
          "internalType": "uint256",
          "name": "id",
          "type": "uint256"
        },
        {
          "internalType": "bool",
          "name": "isSold",
          "type": "bool"
        }
      ],
      "payable": false,
      "stateMutability": "view",
      "type": "function"
    },
    {
      "constant": true,
      "inputs": [],
      "name": "owner",
      "outputs": [
        {
          "internalType": "address",
          "name": "",
          "type": "address"
        }
      ],
      "payable": false,
      "stateMutability": "view",
      "type": "function"
    },
    {
      "constant": true,
      "inputs": [
        {
          "internalType": "address",
          "name": "",
          "type": "address"
        },
        {
          "internalType": "address",
          "name": "",
          "type": "address"
        },
        {
          "internalType": "uint256",
          "name": "",
          "type": "uint256"
        }
      ],
      "name": "soldProducts",
      "outputs": [
        {
          "internalType": "bool",
          "name": "",
          "type": "bool"
        }
      ],
      "payable": false,
      "stateMutability": "view",
      "type": "function"
    },
    {
      "constant": true,
      "inputs": [
        {
          "internalType": "address",
          "name": "",
          "type": "address"
        },
        {
          "internalType": "address",
          "name": "",
          "type": "address"
        },
        {
          "internalType": "uint256",
          "name": "",
          "type": "uint256"
        }
      ],
      "name": "updateTrust",
      "outputs": [
        {
          "internalType": "bool",
          "name": "",
          "type": "bool"
        }
      ],
      "payable": false,
      "stateMutability": "view",
      "type": "function"
    },
    {
      "constant": true,
      "inputs": [],
      "name": "vendor",
      "outputs": [
        {
          "internalType": "contract VendorInterface",
          "name": "",
          "type": "address"
        }
      ],
      "payable": false,
      "stateMutability": "view",
      "type": "function"
    },
    {
      "constant": false,
      "inputs": [
        {
          "internalType": "address",
          "name": "_vendorContract",
          "type": "address"
        }
      ],
      "name": "setVendorContractAddress",
      "outputs": [],
      "payable": false,
      "stateMutability": "nonpayable",
      "type": "function"
    },
    {
      "constant": false,
      "inputs": [
        {
          "internalType": "bytes32",
          "name": "_ipfsHash",
          "type": "bytes32"
        }
      ],
      "name": "addFarmer",
      "outputs": [],
      "payable": false,
      "stateMutability": "nonpayable",
      "type": "function"
    },
    {
      "constant": false,
      "inputs": [
        {
          "internalType": "bytes32",
          "name": "_itemIpfsHash",
          "type": "bytes32"
        }
      ],
      "name": "addItem",
      "outputs": [],
      "payable": false,
      "stateMutability": "nonpayable",
      "type": "function"
    },
    {
      "constant": true,
      "inputs": [
        {
          "internalType": "address",
          "name": "_farmerAddress",
          "type": "address"
        }
      ],
      "name": "getItemCount",
      "outputs": [
        {
          "internalType": "uint256",
          "name": "itemsLength",
          "type": "uint256"
        }
      ],
      "payable": false,
      "stateMutability": "view",
      "type": "function"
    },
    {
      "constant": false,
      "inputs": [
        {
          "internalType": "address",
          "name": "_farmer",
          "type": "address"
        },
        {
          "internalType": "uint256",
          "name": "_productId",
          "type": "uint256"
        },
        {
          "internalType": "uint256",
          "name": "_trust",
          "type": "uint256"
        }
      ],
      "name": "updateFarmerTrust",
      "outputs": [],
      "payable": false,
      "stateMutability": "nonpayable",
      "type": "function"
    },
    {
      "constant": false,
      "inputs": [
        {
          "internalType": "address",
          "name": "_farmer",
          "type": "address"
        }
      ],
      "name": "isFarmer",
      "outputs": [
        {
          "internalType": "bool",
          "name": "",
          "type": "bool"
        }
      ],
      "payable": false,
      "stateMutability": "nonpayable",
      "type": "function"
    },
    {
      "constant": true,
      "inputs": [
        {
          "internalType": "address",
          "name": "_farmer",
          "type": "address"
        }
      ],
      "name": "getFarmer",
      "outputs": [
        {
          "internalType": "bytes32",
          "name": "",
          "type": "bytes32"
        },
        {
          "internalType": "uint256",
          "name": "",
          "type": "uint256"
        },
        {
          "internalType": "uint256",
          "name": "",
          "type": "uint256"
        }
      ],
      "payable": false,
      "stateMutability": "view",
      "type": "function"
    },
    {
      "constant": true,
      "inputs": [
        {
          "internalType": "address",
          "name": "_farmer",
          "type": "address"
        },
        {
          "internalType": "uint256",
          "name": "_productId",
          "type": "uint256"
        }
      ],
      "name": "getProductStatus",
      "outputs": [
        {
          "internalType": "bool",
          "name": "",
          "type": "bool"
        }
      ],
      "payable": false,
      "stateMutability": "view",
      "type": "function"
    },
    {
      "constant": false,
      "inputs": [
        {
          "internalType": "address",
          "name": "_vendor",
          "type": "address"
        },
        {
          "internalType": "address",
          "name": "_farmer",
          "type": "address"
        },
        {
          "internalType": "uint256",
          "name": "_productId",
          "type": "uint256"
        }
      ],
      "name": "setProductAsSold",
      "outputs": [],
      "payable": false,
      "stateMutability": "nonpayable",
      "type": "function"
    },
    {
      "constant": true,
      "inputs": [
        {
          "internalType": "address",
          "name": "_vendor",
          "type": "address"
        },
        {
          "internalType": "address",
          "name": "_farmer",
          "type": "address"
        },
        {
          "internalType": "uint256",
          "name": "_productId",
          "type": "uint256"
        }
      ],
      "name": "getTradeStatus",
      "outputs": [
        {
          "internalType": "bool",
          "name": "tradeStatus",
          "type": "bool"
        }
      ],
      "payable": false,
      "stateMutability": "view",
      "type": "function"
    }
  ],
  "bytecode": "0x608060405234801561001057600080fd5b50611bc5806100206000396000f3fe608060405234801561001057600080fd5b50600436106101005760003560e01c8063a9cdd60d11610097578063cb989d1711610066578063cb989d1714610579578063d42f30be146105ff578063d6b0769414610657578063e7609c161461068557610100565b8063a9cdd60d14610405578063ae2861e314610449578063afff0212146104b7578063b94290691461051d57610100565b8063454ded55116100d3578063454ded55146102695780634ca5903a146102c15780635c80a435146103475780638da5cb5b146103bb57610100565b80631385a6f2146101055780631a1786b31461014f5780632c95ad52146101d5578063401b216814610203575b600080fd5b61010d6106eb565b604051808273ffffffffffffffffffffffffffffffffffffffff1673ffffffffffffffffffffffffffffffffffffffff16815260200191505060405180910390f35b6101bb6004803603606081101561016557600080fd5b81019080803573ffffffffffffffffffffffffffffffffffffffff169060200190929190803573ffffffffffffffffffffffffffffffffffffffff16906020019092919080359060200190929190505050610711565b604051808215151515815260200191505060405180910390f35b610201600480360360208110156101eb57600080fd5b810190808035906020019092919050505061074d565b005b6102456004803603602081101561021957600080fd5b81019080803573ffffffffffffffffffffffffffffffffffffffff169060200190929190505050610997565b60405180848152602001838152602001828152602001935050505060405180910390f35b6102bf6004803603606081101561027f57600080fd5b81019080803573ffffffffffffffffffffffffffffffffffffffff16906020019092919080359060200190929190803590602001909291905050506109c1565b005b61032d600480360360608110156102d757600080fd5b81019080803573ffffffffffffffffffffffffffffffffffffffff169060200190929190803573ffffffffffffffffffffffffffffffffffffffff169060200190929190803590602001909291905050506110b9565b604051808215151515815260200191505060405180910390f35b6103936004803603604081101561035d57600080fd5b81019080803573ffffffffffffffffffffffffffffffffffffffff169060200190929190803590602001909291905050506110f5565b6040518084815260200183815260200182151515158152602001935050505060405180910390f35b6103c3611146565b604051808273ffffffffffffffffffffffffffffffffffffffff1673ffffffffffffffffffffffffffffffffffffffff16815260200191505060405180910390f35b6104476004803603602081101561041b57600080fd5b81019080803573ffffffffffffffffffffffffffffffffffffffff16906020019092919050505061116b565b005b6104b56004803603606081101561045f57600080fd5b81019080803573ffffffffffffffffffffffffffffffffffffffff169060200190929190803573ffffffffffffffffffffffffffffffffffffffff169060200190929190803590602001909291905050506111af565b005b610503600480360360408110156104cd57600080fd5b81019080803573ffffffffffffffffffffffffffffffffffffffff1690602001909291908035906020019092919050505061144e565b604051808215151515815260200191505060405180910390f35b61055f6004803603602081101561053357600080fd5b81019080803573ffffffffffffffffffffffffffffffffffffffff1690602001909291905050506114c1565b604051808215151515815260200191505060405180910390f35b6105e56004803603606081101561058f57600080fd5b81019080803573ffffffffffffffffffffffffffffffffffffffff169060200190929190803573ffffffffffffffffffffffffffffffffffffffff16906020019092919080359060200190929190505050611513565b604051808215151515815260200191505060405180910390f35b6106416004803603602081101561061557600080fd5b81019080803573ffffffffffffffffffffffffffffffffffffffff1690602001909291905050506115b9565b6040518082815260200191505060405180910390f35b6106836004803603602081101561066d57600080fd5b8101908080359060200190929190505050611605565b005b6106c76004803603602081101561069b57600080fd5b81019080803573ffffffffffffffffffffffffffffffffffffffff1690602001909291905050506117c4565b60405180848152602001838152602001828152602001935050505060405180910390f35b600160009054906101000a900473ffffffffffffffffffffffffffffffffffffffff1681565b6004602052826000526040600020602052816000526040600020602052806000526040600020600092509250509054906101000a900460ff1681565b6000801b600260003373ffffffffffffffffffffffffffffffffffffffff1673ffffffffffffffffffffffffffffffffffffffff168152602001908152602001600020600001541415610808576040517f08c379a00000000000000000000000000000000000000000000000000000000081526004018080602001828103825260148152602001807f4f6e6c79206661726d65722063616e2063616c6c00000000000000000000000081525060200191505060405180910390fd5b6000801b811415610881576040517f08c379a000000000000000000000000000000000000000000000000000000000815260040180806020018281038252601a8152602001807f495046532068617368206d757374206e6f74206265207a65726f00000000000081525060200191505060405180910390fd5b6000600360003373ffffffffffffffffffffffffffffffffffffffff1673ffffffffffffffffffffffffffffffffffffffff1681526020019081526020016000208054905090506108d0611a84565b6040518060600160405280848152602001838152602001600015158152509050600360003373ffffffffffffffffffffffffffffffffffffffff1673ffffffffffffffffffffffffffffffffffffffff1681526020019081526020016000208190806001815401808255809150509060018203906000526020600020906003020160009091929091909150600082015181600001556020820151816001015560408201518160020160006101000a81548160ff021916908315150217905550505050505050565b60026020528060005260406000206000915090508060000154908060010154908060020154905083565b600160009054906101000a900473ffffffffffffffffffffffffffffffffffffffff1673ffffffffffffffffffffffffffffffffffffffff1663ee54d54f336040518263ffffffff1660e01b8152600401808273ffffffffffffffffffffffffffffffffffffffff1673ffffffffffffffffffffffffffffffffffffffff168152602001915050602060405180830381600087803b158015610a6257600080fd5b505af1158015610a76573d6000803e3d6000fd5b505050506040513d6020811015610a8c57600080fd5b8101908080519060200190929190505050610b0f576040517f08c379a00000000000000000000000000000000000000000000000000000000081526004018080602001828103825260158152602001807f4f6e6c792076656e646f722063616e2063616c6c2e000000000000000000000081525060200191505060405180910390fd5b60011515600160009054906101000a900473ffffffffffffffffffffffffffffffffffffffff1673ffffffffffffffffffffffffffffffffffffffff1663ee54d54f336040518263ffffffff1660e01b8152600401808273ffffffffffffffffffffffffffffffffffffffff1673ffffffffffffffffffffffffffffffffffffffff168152602001915050602060405180830381600087803b158015610bb457600080fd5b505af1158015610bc8573d6000803e3d6000fd5b505050506040513d6020811015610bde57600080fd5b8101908080519060200190929190505050151514610c64576040517f08c379a00000000000000000000000000000000000000000000000000000000081526004018080602001828103825260128152602001807f56656e646f72206d7573742065786973742e000000000000000000000000000081525060200191505060405180910390fd5b6000801b600260008573ffffffffffffffffffffffffffffffffffffffff1673ffffffffffffffffffffffffffffffffffffffff168152602001908152602001600020600001541415610d1f576040517f08c379a00000000000000000000000000000000000000000000000000000000081526004018080602001828103825260118152602001807f4661726d6572206d75737420657869737400000000000000000000000000000081525060200191505060405180910390fd5b600081118015610d30575060058111155b610d85576040517f08c379a0000000000000000000000000000000000000000000000000000000008152600401808060200182810382526037815260200180611b086037913960400191505060405180910390fd5b60011515600460003373ffffffffffffffffffffffffffffffffffffffff1673ffffffffffffffffffffffffffffffffffffffff16815260200190815260200160002060008573ffffffffffffffffffffffffffffffffffffffff1673ffffffffffffffffffffffffffffffffffffffff168152602001908152602001600020600084815260200190815260200160002060009054906101000a900460ff16151514610e7c576040517f08c379a000000000000000000000000000000000000000000000000000000000815260040180806020018281038252602f815260200180611b62602f913960400191505060405180910390fd5b60001515600560003373ffffffffffffffffffffffffffffffffffffffff1673ffffffffffffffffffffffffffffffffffffffff16815260200190815260200160002060008573ffffffffffffffffffffffffffffffffffffffff1673ffffffffffffffffffffffffffffffffffffffff168152602001908152602001600020600084815260200190815260200160002060009054906101000a900460ff16151514610f73576040517f08c379a0000000000000000000000000000000000000000000000000000000008152600401808060200182810382526039815260200180611acf6039913960400191505060405180910390fd5b6001600560003373ffffffffffffffffffffffffffffffffffffffff1673ffffffffffffffffffffffffffffffffffffffff16815260200190815260200160002060008573ffffffffffffffffffffffffffffffffffffffff1673ffffffffffffffffffffffffffffffffffffffff168152602001908152602001600020600084815260200190815260200160002060006101000a81548160ff02191690831515021790555061106e81600260008673ffffffffffffffffffffffffffffffffffffffff1673ffffffffffffffffffffffffffffffffffffffff168152602001908152602001600020600101546119fc90919063ffffffff16565b600260008573ffffffffffffffffffffffffffffffffffffffff1673ffffffffffffffffffffffffffffffffffffffff16815260200190815260200160002060010181905550505050565b6005602052826000526040600020602052816000526040600020602052806000526040600020600092509250509054906101000a900460ff1681565b6003602052816000526040600020818154811061110e57fe5b9060005260206000209060030201600091509150508060000154908060010154908060020160009054906101000a900460ff16905083565b6000809054906101000a900473ffffffffffffffffffffffffffffffffffffffff1681565b80600160006101000a81548173ffffffffffffffffffffffffffffffffffffffff021916908373ffffffffffffffffffffffffffffffffffffffff16021790555050565b6000801b600260008473ffffffffffffffffffffffffffffffffffffffff1673ffffffffffffffffffffffffffffffffffffffff16815260200190815260200160002060000154141561126a576040517f08c379a00000000000000000000000000000000000000000000000000000000081526004018080602001828103825260128152602001807f4661726d6572206d7573742065786973742e000000000000000000000000000081525060200191505060405180910390fd5b60001515600360008473ffffffffffffffffffffffffffffffffffffffff1673ffffffffffffffffffffffffffffffffffffffff16815260200190815260200160002082815481106112b857fe5b906000526020600020906003020160020160009054906101000a900460ff1615151461132f576040517f08c379a0000000000000000000000000000000000000000000000000000000008152600401808060200182810382526023815260200180611b3f6023913960400191505060405180910390fd5b6001600460008573ffffffffffffffffffffffffffffffffffffffff1673ffffffffffffffffffffffffffffffffffffffff16815260200190815260200160002060008473ffffffffffffffffffffffffffffffffffffffff1673ffffffffffffffffffffffffffffffffffffffff168152602001908152602001600020600083815260200190815260200160002060006101000a81548160ff0219169083151502179055506001600360008473ffffffffffffffffffffffffffffffffffffffff1673ffffffffffffffffffffffffffffffffffffffff168152602001908152602001600020828154811061142157fe5b906000526020600020906003020160020160006101000a81548160ff021916908315150217905550505050565b6000600360008473ffffffffffffffffffffffffffffffffffffffff1673ffffffffffffffffffffffffffffffffffffffff168152602001908152602001600020828154811061149a57fe5b906000526020600020906003020160020160009054906101000a900460ff16905092915050565b60008060001b600260008473ffffffffffffffffffffffffffffffffffffffff1673ffffffffffffffffffffffffffffffffffffffff1681526020019081526020016000206000015414159050919050565b6000600460008573ffffffffffffffffffffffffffffffffffffffff1673ffffffffffffffffffffffffffffffffffffffff16815260200190815260200160002060008473ffffffffffffffffffffffffffffffffffffffff1673ffffffffffffffffffffffffffffffffffffffff168152602001908152602001600020600083815260200190815260200160002060009054906101000a900460ff1690509392505050565b6000600360008373ffffffffffffffffffffffffffffffffffffffff1673ffffffffffffffffffffffffffffffffffffffff168152602001908152602001600020805490509050919050565b6000801b81141561167e576040517f08c379a000000000000000000000000000000000000000000000000000000000815260040180806020018281038252601a8152602001807f495046532068617368206d757374206e6f74206265207a65726f00000000000081525060200191505060405180910390fd5b6000801b600260003373ffffffffffffffffffffffffffffffffffffffff1673ffffffffffffffffffffffffffffffffffffffff1681526020019081526020016000206000015414611738576040517f08c379a00000000000000000000000000000000000000000000000000000000081526004018080602001828103825260168152602001807f4661726d657220616c7265616479206578697374732e0000000000000000000081525060200191505060405180910390fd5b611740611aaa565b6040518060600160405280838152602001600581526020016000815250905080600260003373ffffffffffffffffffffffffffffffffffffffff1673ffffffffffffffffffffffffffffffffffffffff1681526020019081526020016000206000820151816000015560208201518160010155604082015181600201559050505050565b60008060008073ffffffffffffffffffffffffffffffffffffffff168473ffffffffffffffffffffffffffffffffffffffff16141561186b576040517f08c379a000000000000000000000000000000000000000000000000000000000815260040180806020018281038252601f8152602001807f4661726d657220616464726573732063616e6e6f7420626520656d7074792e0081525060200191505060405180910390fd5b6000801b600260008673ffffffffffffffffffffffffffffffffffffffff1673ffffffffffffffffffffffffffffffffffffffff168152602001908152602001600020600001541415611926576040517f08c379a00000000000000000000000000000000000000000000000000000000081526004018080602001828103825260128152602001807f4661726d6572206d7573742065786973742e000000000000000000000000000081525060200191505060405180910390fd5b600260008573ffffffffffffffffffffffffffffffffffffffff1673ffffffffffffffffffffffffffffffffffffffff16815260200190815260200160002060000154600260008673ffffffffffffffffffffffffffffffffffffffff1673ffffffffffffffffffffffffffffffffffffffff16815260200190815260200160002060010154600260008773ffffffffffffffffffffffffffffffffffffffff1673ffffffffffffffffffffffffffffffffffffffff168152602001908152602001600020600201549250925092509193909250565b600080828401905083811015611a7a576040517f08c379a000000000000000000000000000000000000000000000000000000000815260040180806020018281038252601b8152602001807f536166654d6174683a206164646974696f6e206f766572666c6f77000000000081525060200191505060405180910390fd5b8091505092915050565b604051806060016040528060008019168152602001600081526020016000151581525090565b6040518060600160405280600080191681526020016000815260200160008152509056fe4d756c7469706c65207472757374207570646174696f6e7320666f722073616d652070726f64756374206973206e6f7420616c6c6f7765642e54727573742076616c75652063616e6e6f74206265207a65726f20616e642063616e6e6f742062652067726561746572207468616e203550726f64756374206d75737420626520617661696c61626c6520666f722073656c6c2e5472616465206d757374206265207375636365737366756c206265666f7265207570646174696e672074727573742ea265627a7a72315820e04fafd063db2071dd512442cf4f6060d314419be0540112a785367f2bcab4e364736f6c63430005100032",
  "source": "pragma solidity >=0.5.0;\n\nimport \"../vendor/VendorInterface.sol\";\nimport \"./FarmerInterface.sol\";\n\nimport \"openzeppelin-solidity/contracts/math/SafeMath.sol\";\n\ncontract FarmerContract is FarmerInterface {\n\n    /* Usings */\n\n    using SafeMath for uint256;\n\n\n    /* Structs */\n\n    struct Farmer {\n        bytes32 ipfsHash;\n        uint256 trust;\n        uint256 reviewers;\n    }\n\n    struct Item {\n        bytes32 ipfsHash;\n        uint256 id;\n        bool isSold;\n    }\n\n\n    /* Public variables */\n\n    /* Contract owner address */\n    address public owner;\n\n    /* Vendor contract address */\n    VendorInterface public vendor;\n\n\n    /* Mappings*/\n\n    /* Mapping for farmer struct */\n    mapping (address /* farmer address */ => Farmer) public farmers;\n\n    /* Mapping for Item array */\n    mapping (address /* farmer address */ => Item[]) public items;\n\n    /* Mapping for record of products sold */\n    mapping (address => mapping (address => mapping (uint256 => bool))) public soldProducts;\n\n    /* Mapping for update trust */\n    mapping (address => mapping (address => mapping (uint256 => bool))) public updateTrust;\n\n\n    /* Modifiers */\n\n    /* Modifier to check caller is a vendor. */\n    modifier onlyVendor() {\n        require(\n            vendor.isVendor(msg.sender),\n            \"Only vendor can call.\"\n        );\n        _;\n    }\n\n    /* Modifier to check caller is a farmer. */\n    modifier onlyFarmer() {\n        require(\n            farmers[msg.sender].ipfsHash != bytes32(0),\n            \"Only farmer can call\"\n        );\n        _;\n    }\n\n\n    /* Public Functions */\n\n    /**\n     * Set vendor contract address - only called once.\n     * @param _vendorContract - vendor contract address.\n     */\n    function setVendorContractAddress(address _vendorContract) public {\n        vendor = VendorInterface(_vendorContract);\n    }\n\n    /**\n     *  Add farmer to the mapping\n                - farmer must not already present\n                - farmer address must not be empty\n                - ipfs hash must not be empty\n                - initial trust\n     * @param\n                _ipfsHash - hash of farmer data stored on ipfs\n                _name - farmer\n     */\n    function addFarmer(bytes32 _ipfsHash)\n        public\n    {\n        require(\n            _ipfsHash != bytes32(0),\n            \"IPFS hash must not be zero\"\n        );\n\n        require(\n            farmers[msg.sender].ipfsHash == bytes32(0),\n            \"Farmer already exists.\"\n        );\n\n        Farmer memory farmer = Farmer({\n            ipfsHash: _ipfsHash,\n            trust: uint256(5),\n            reviewers: uint256(0)\n        });\n\n        farmers[msg.sender] = farmer;\n    }\n\n    /**\n     * Add item to the array of items and the mapping\n                - IPFS hash of item must not be empty\n                - id must not be zero\n     * @param\n                _itemIpfsHash - hash of item data stored on ipfs\n                _id - id of the item\n     */\n    function addItem(bytes32 _itemIpfsHash)\n        public\n        onlyFarmer\n    {\n        require(\n            _itemIpfsHash != bytes32(0),\n            \"IPFS hash must not be zero\"\n        );\n\n        uint256 itemLength = items[msg.sender].length;\n\n        Item memory item = Item({\n            ipfsHash: _itemIpfsHash,\n            id: itemLength,\n            isSold: false\n        });\n\n        items[msg.sender].push(item);\n    }\n\n    /**\n     * Returns count of items belongs to `_farmerAddress`\n     * @param _farmerAddress - Farmer address\n     *\n     * @return itemsLength - length of item array corresponding\n     *                       `_farmerAddress`.\n     */\n    function getItemCount(address _farmerAddress) public view returns (uint256 itemsLength) {\n        itemsLength = items[_farmerAddress].length;\n    }\n\n    /**\n     * update farmer's trust value\n     * @param _farmer - farmer address.\n     * @param _trust - trust value provided by vendor.\n     */\n    function updateFarmerTrust(address _farmer, uint256 _productId, uint256 _trust)\n        public\n        onlyVendor\n    {\n        require (\n            vendor.isVendor(msg.sender) == true,\n            \"Vendor must exist.\"\n        );\n        require(\n            farmers[_farmer].ipfsHash != bytes32(0),\n            \"Farmer must exist\"\n        );\n        require (\n            _trust > 0 && _trust <= 5,\n            \"Trust value cannot be zero and cannot be greater than 5\"\n        );\n        require(\n            soldProducts[msg.sender][_farmer][_productId] == true,\n            \"Trade must be successful before updating trust.\"\n        );\n        require(\n            updateTrust[msg.sender][_farmer][_productId] == false,\n            \"Multiple trust updations for same product is not allowed.\"\n        );\n\n        updateTrust[msg.sender][_farmer][_productId] = true;\n        farmers[_farmer].trust = farmers[_farmer].trust.add(_trust);\n    }\n\n    /**\n     * Check for farmer exist or not\n     * @param _farmer - farmer address\n     *\n     * @return bool - whether farmer is present or not\n     */\n    function isFarmer(address _farmer)\n        external\n        returns (bool)\n    {\n        return (farmers[_farmer].ipfsHash != bytes32(0));\n    }\n\n    /**\n     * Get farmer details\n     * @param _farmer - farmer address\n     *\n     * @return farmer ipfs hash\n     *         farmer trust\n     *         farmer reviewers\n     */\n    function getFarmer(address _farmer)\n        public\n        view\n        returns (bytes32, uint256, uint256)\n    {\n        require(\n            _farmer != address(0),\n            \"Farmer address cannot be empty.\"\n        );\n        require(\n            farmers[_farmer].ipfsHash != bytes32(0),\n            \"Farmer must exist.\"\n        );\n\n        return (\n            farmers[_farmer].ipfsHash,\n            farmers[_farmer].trust,\n            farmers[_farmer].reviewers\n        );\n    }\n\n    /**\n     * Get product status - sold or not.\n     *\n     * @param _farmer - farmer address\n     * @param _productId - product id\n     *\n     * @return bool - whether product is sold or not\n     *                true - sold\n     *                false - not sold\n     */\n    function getProductStatus(address _farmer, uint256 _productId)\n        public\n        view\n        returns (bool)\n    {\n        return items[_farmer][_productId].isSold;\n    }\n\n    /**\n     * Set product status as sold - only vendor can call.\n     *\n     * @param _farmer - farmer address\n     * @param _productId - product id\n     */\n    function setProductAsSold(address _vendor, address _farmer, uint256 _productId)\n        external\n    {\n        require(\n            farmers[_farmer].ipfsHash != bytes32(0),\n            \"Farmer must exist.\"\n        );\n        require(\n            items[_farmer][_productId].isSold == false,\n            \"Product must be available for sell.\"\n        );\n\n        soldProducts[_vendor][_farmer][_productId] = true;\n        items[_farmer][_productId].isSold = true;\n    }\n\n    function getTradeStatus(address _vendor, address _farmer, uint256 _productId)\n        public\n        view\n        returns (bool tradeStatus)\n    {\n        tradeStatus = soldProducts[_vendor][_farmer][_productId];\n    }\n}\n",
  "sourcePath": "/Users/OST/Documents/AgroTrade/agro-trade-contracts/contracts/farmer/FarmerContract.sol",
  "compiler": {
    "name": "solc",
    "version": "0.5.16+commit.9c3226ce.Emscripten.clang"
  },
  "schemaVersion": "3.0.23",
  "updatedAt": "2020-04-11T08:19:12.756Z",
  "networkType": "ethereum",
  "devdoc": {
    "methods": {
      "addFarmer(bytes32)": {
        "params": {
          "_ipfsHash": "- hash of farmer data stored on ipfs _name - farmer"
        }
      },
      "addItem(bytes32)": {
        "params": {
          "_itemIpfsHash": "- hash of item data stored on ipfs _id - id of the item"
        }
      },
      "getFarmer(address)": {
        "params": {
          "_farmer": "- farmer address"
        },
        "return": "farmer ipfs hash        farmer trust        farmer reviewers"
      },
      "getItemCount(address)": {
        "params": {
          "_farmerAddress": "- Farmer address"
        },
        "return": "itemsLength - length of item array corresponding                      `_farmerAddress`."
      },
      "getProductStatus(address,uint256)": {
        "params": {
          "_farmer": "- farmer address",
          "_productId": "- product id"
        },
        "return": "bool - whether product is sold or not               true - sold               false - not sold"
      },
      "isFarmer(address)": {
        "params": {
          "_farmer": "- farmer address"
        },
        "return": "bool - whether farmer is present or not"
      },
      "setProductAsSold(address,address,uint256)": {
        "params": {
          "_farmer": "- farmer address",
          "_productId": "- product id"
        }
      },
      "setVendorContractAddress(address)": {
        "params": {
          "_vendorContract": "- vendor contract address."
        }
      },
      "updateFarmerTrust(address,uint256,uint256)": {
        "params": {
          "_farmer": "- farmer address.",
          "_trust": "- trust value provided by vendor."
        }
      }
    }
  },
  "userdoc": {
    "methods": {
      "addFarmer(bytes32)": {
        "notice": "Add farmer to the mapping - farmer must not already present - farmer address must not be empty - ipfs hash must not be empty - initial trust"
      },
      "addItem(bytes32)": {
        "notice": "Add item to the array of items and the mapping - IPFS hash of item must not be empty - id must not be zero"
      },
      "getFarmer(address)": {
        "notice": "Get farmer details"
      },
      "getItemCount(address)": {
        "notice": "Returns count of items belongs to `_farmerAddress`"
      },
      "getProductStatus(address,uint256)": {
        "notice": "Get product status - sold or not."
      },
      "isFarmer(address)": {
        "notice": "Check for farmer exist or not"
      },
      "setProductAsSold(address,address,uint256)": {
        "notice": "Set product status as sold - only vendor can call."
      },
      "setVendorContractAddress(address)": {
        "notice": "Set vendor contract address - only called once."
      },
      "updateFarmerTrust(address,uint256,uint256)": {
        "notice": "update farmer's trust value"
      }
    }
  }
}