{
  "address": "0x4A1349D3edFd041EeD165c9cFd4bB22322B4E1D3",
  "contractName": "VendorContract",
  "abi": [
    {
      "constant": true,
      "inputs": [],
      "name": "farmer",
      "outputs": [
        {
          "internalType": "contract FarmerInterface",
          "name": "",
          "type": "address"
        }
      ],
      "payable": false,
      "stateMutability": "view",
      "type": "function"
    },
    {
      "constant": true,
      "inputs": [
        {
          "internalType": "address",
          "name": "",
          "type": "address"
        },
        {
          "internalType": "address",
          "name": "",
          "type": "address"
        },
        {
          "internalType": "uint256",
          "name": "",
          "type": "uint256"
        }
      ],
      "name": "updateTrust",
      "outputs": [
        {
          "internalType": "bool",
          "name": "",
          "type": "bool"
        }
      ],
      "payable": false,
      "stateMutability": "view",
      "type": "function"
    },
    {
      "constant": true,
      "inputs": [
        {
          "internalType": "address",
          "name": "",
          "type": "address"
        }
      ],
      "name": "vendors",
      "outputs": [
        {
          "internalType": "bytes32",
          "name": "ipfsHash",
          "type": "bytes32"
        },
        {
          "internalType": "uint256",
          "name": "trust",
          "type": "uint256"
        },
        {
          "internalType": "uint256",
          "name": "reviewers",
          "type": "uint256"
        }
      ],
      "payable": false,
      "stateMutability": "view",
      "type": "function"
    },
    {
      "constant": false,
      "inputs": [
        {
          "internalType": "address",
          "name": "_farmer",
          "type": "address"
        }
      ],
      "name": "setFarmerContractAddress",
      "outputs": [],
      "payable": false,
      "stateMutability": "nonpayable",
      "type": "function"
    },
    {
      "constant": false,
      "inputs": [
        {
          "internalType": "bytes32",
          "name": "_ipfsHash",
          "type": "bytes32"
        }
      ],
      "name": "addVendor",
      "outputs": [],
      "payable": false,
      "stateMutability": "nonpayable",
      "type": "function"
    },
    {
      "constant": false,
      "inputs": [
        {
          "internalType": "address",
          "name": "_vendor",
          "type": "address"
        }
      ],
      "name": "isVendor",
      "outputs": [
        {
          "internalType": "bool",
          "name": "",
          "type": "bool"
        }
      ],
      "payable": false,
      "stateMutability": "nonpayable",
      "type": "function"
    },
    {
      "constant": true,
      "inputs": [
        {
          "internalType": "address",
          "name": "_vendor",
          "type": "address"
        }
      ],
      "name": "getVendor",
      "outputs": [
        {
          "internalType": "bytes32",
          "name": "",
          "type": "bytes32"
        },
        {
          "internalType": "uint256",
          "name": "",
          "type": "uint256"
        },
        {
          "internalType": "uint256",
          "name": "",
          "type": "uint256"
        }
      ],
      "payable": false,
      "stateMutability": "view",
      "type": "function"
    },
    {
      "constant": false,
      "inputs": [
        {
          "internalType": "address",
          "name": "_vendor",
          "type": "address"
        },
        {
          "internalType": "uint256",
          "name": "_productId",
          "type": "uint256"
        },
        {
          "internalType": "uint256",
          "name": "_trust",
          "type": "uint256"
        }
      ],
      "name": "updateVendorTrust",
      "outputs": [],
      "payable": false,
      "stateMutability": "nonpayable",
      "type": "function"
    },
    {
      "constant": false,
      "inputs": [
        {
          "internalType": "address",
          "name": "_farmer",
          "type": "address"
        },
        {
          "internalType": "uint256",
          "name": "_productId",
          "type": "uint256"
        }
      ],
      "name": "buyProduct",
      "outputs": [],
      "payable": false,
      "stateMutability": "nonpayable",
      "type": "function"
    }
  ],
  "bytecode": "0x608060405234801561001057600080fd5b50611370806100206000396000f3fe608060405234801561001057600080fd5b50600436106100935760003560e01c80638c35aa9c116100665780638c35aa9c14610218578063cddb8e941461025c578063d811fcf0146102aa578063eb92fb3a146102f4578063ee54d54f1461034c57610093565b80630bc0f7d31461009857806327e30c36146100fe57806336b6f439146101645780634ca5903a14610192575b600080fd5b6100da600480360360208110156100ae57600080fd5b81019080803573ffffffffffffffffffffffffffffffffffffffff1690602001909291905050506103a8565b60405180848152602001838152602001828152602001935050505060405180910390f35b6101406004803603602081101561011457600080fd5b81019080803573ffffffffffffffffffffffffffffffffffffffff1690602001909291905050506105dc565b60405180848152602001838152602001828152602001935050505060405180910390f35b6101906004803603602081101561017a57600080fd5b8101908080359060200190929190505050610606565b005b6101fe600480360360608110156101a857600080fd5b81019080803573ffffffffffffffffffffffffffffffffffffffff169060200190929190803573ffffffffffffffffffffffffffffffffffffffff169060200190929190803590602001909291905050506107c3565b604051808215151515815260200191505060405180910390f35b61025a6004803603602081101561022e57600080fd5b81019080803573ffffffffffffffffffffffffffffffffffffffff1690602001909291905050506107ff565b005b6102a86004803603604081101561027257600080fd5b81019080803573ffffffffffffffffffffffffffffffffffffffff16906020019092919080359060200190929190505050610970565b005b6102b2610b23565b604051808273ffffffffffffffffffffffffffffffffffffffff1673ffffffffffffffffffffffffffffffffffffffff16815260200191505060405180910390f35b61034a6004803603606081101561030a57600080fd5b81019080803573ffffffffffffffffffffffffffffffffffffffff1690602001909291908035906020019092919080359060200190929190505050610b49565b005b61038e6004803603602081101561036257600080fd5b81019080803573ffffffffffffffffffffffffffffffffffffffff169060200190929190505050611180565b604051808215151515815260200191505060405180910390f35b60008060008073ffffffffffffffffffffffffffffffffffffffff168473ffffffffffffffffffffffffffffffffffffffff16141561044f576040517f08c379a000000000000000000000000000000000000000000000000000000000815260040180806020018281038252601c8152602001807f56656e646f722061646472657373206d757374206e6f7420626520300000000081525060200191505060405180910390fd5b6000801b6000808673ffffffffffffffffffffffffffffffffffffffff1673ffffffffffffffffffffffffffffffffffffffff168152602001908152602001600020600001541415610509576040517f08c379a00000000000000000000000000000000000000000000000000000000081526004018080602001828103825260128152602001807f56656e646f72206d7573742065786973742e000000000000000000000000000081525060200191505060405180910390fd5b6000808573ffffffffffffffffffffffffffffffffffffffff1673ffffffffffffffffffffffffffffffffffffffff168152602001908152602001600020600001546000808673ffffffffffffffffffffffffffffffffffffffff1673ffffffffffffffffffffffffffffffffffffffff168152602001908152602001600020600101546000808773ffffffffffffffffffffffffffffffffffffffff1673ffffffffffffffffffffffffffffffffffffffff168152602001908152602001600020600201549250925092509193909250565b60006020528060005260406000206000915090508060000154908060010154908060020154905083565b6000801b81141561067f576040517f08c379a000000000000000000000000000000000000000000000000000000000815260040180806020018281038252601c8152602001807f4970667320686173682073686f756c64206e6f74206265207a65726f0000000081525060200191505060405180910390fd5b6000801b6000803373ffffffffffffffffffffffffffffffffffffffff1673ffffffffffffffffffffffffffffffffffffffff1681526020019081526020016000206000015414610738576040517f08c379a00000000000000000000000000000000000000000000000000000000081526004018080602001828103825260168152602001807f56656e646f7220616c7265616479206578697374732e0000000000000000000081525060200191505060405180910390fd5b610740611259565b60405180606001604052808381526020016005815260200160008152509050806000803373ffffffffffffffffffffffffffffffffffffffff1673ffffffffffffffffffffffffffffffffffffffff1681526020019081526020016000206000820151816000015560208201518160010155604082015181600201559050505050565b6001602052826000526040600020602052816000526040600020602052806000526040600020600092509250509054906101000a900460ff1681565b600073ffffffffffffffffffffffffffffffffffffffff16600260009054906101000a900473ffffffffffffffffffffffffffffffffffffffff1673ffffffffffffffffffffffffffffffffffffffff16146108a6576040517f08c379a00000000000000000000000000000000000000000000000000000000081526004018080602001828103825260248152602001806112b76024913960400191505060405180910390fd5b600073ffffffffffffffffffffffffffffffffffffffff168173ffffffffffffffffffffffffffffffffffffffff16141561092c576040517f08c379a000000000000000000000000000000000000000000000000000000000815260040180806020018281038252602a815260200180611312602a913960400191505060405180910390fd5b80600260006101000a81548173ffffffffffffffffffffffffffffffffffffffff021916908373ffffffffffffffffffffffffffffffffffffffff16021790555050565b6000801b6000803373ffffffffffffffffffffffffffffffffffffffff1673ffffffffffffffffffffffffffffffffffffffff168152602001908152602001600020600001541415610a2a576040517f08c379a00000000000000000000000000000000000000000000000000000000081526004018080602001828103825260158152602001807f4f6e6c792076656e646f722063616e2063616c6c2e000000000000000000000081525060200191505060405180910390fd5b600260009054906101000a900473ffffffffffffffffffffffffffffffffffffffff1673ffffffffffffffffffffffffffffffffffffffff1663ae2861e33384846040518463ffffffff1660e01b8152600401808473ffffffffffffffffffffffffffffffffffffffff1673ffffffffffffffffffffffffffffffffffffffff1681526020018373ffffffffffffffffffffffffffffffffffffffff1673ffffffffffffffffffffffffffffffffffffffff1681526020018281526020019350505050600060405180830381600087803b158015610b0757600080fd5b505af1158015610b1b573d6000803e3d6000fd5b505050505050565b600260009054906101000a900473ffffffffffffffffffffffffffffffffffffffff1681565b600260009054906101000a900473ffffffffffffffffffffffffffffffffffffffff1673ffffffffffffffffffffffffffffffffffffffff1663b9429069336040518263ffffffff1660e01b8152600401808273ffffffffffffffffffffffffffffffffffffffff1673ffffffffffffffffffffffffffffffffffffffff168152602001915050602060405180830381600087803b158015610bea57600080fd5b505af1158015610bfe573d6000803e3d6000fd5b505050506040513d6020811015610c1457600080fd5b8101908080519060200190929190505050610c97576040517f08c379a00000000000000000000000000000000000000000000000000000000081526004018080602001828103825260158152602001807f4f6e6c79206661726d65722063616e2063616c6c2e000000000000000000000081525060200191505060405180910390fd5b6000801b6000808573ffffffffffffffffffffffffffffffffffffffff1673ffffffffffffffffffffffffffffffffffffffff168152602001908152602001600020600001541415610d51576040517f08c379a00000000000000000000000000000000000000000000000000000000081526004018080602001828103825260128152602001807f56656e646f72206d7573742065786973742e000000000000000000000000000081525060200191505060405180910390fd5b600081118015610d62575060058111155b610db7576040517f08c379a00000000000000000000000000000000000000000000000000000000081526004018080602001828103825260378152602001806112db6037913960400191505060405180910390fd5b60011515600260009054906101000a900473ffffffffffffffffffffffffffffffffffffffff1673ffffffffffffffffffffffffffffffffffffffff1663cb989d178533866040518463ffffffff1660e01b8152600401808473ffffffffffffffffffffffffffffffffffffffff1673ffffffffffffffffffffffffffffffffffffffff1681526020018373ffffffffffffffffffffffffffffffffffffffff1673ffffffffffffffffffffffffffffffffffffffff168152602001828152602001935050505060206040518083038186803b158015610e9657600080fd5b505afa158015610eaa573d6000803e3d6000fd5b505050506040513d6020811015610ec057600080fd5b8101908080519060200190929190505050151514610f46576040517f08c379a00000000000000000000000000000000000000000000000000000000081526004018080602001828103825260198152602001807f5472616465206d757374206265207375636365737366756c2e0000000000000081525060200191505060405180910390fd5b60001515600160008573ffffffffffffffffffffffffffffffffffffffff1673ffffffffffffffffffffffffffffffffffffffff16815260200190815260200160002060003373ffffffffffffffffffffffffffffffffffffffff1673ffffffffffffffffffffffffffffffffffffffff168152602001908152602001600020600084815260200190815260200160002060009054906101000a900460ff1615151461103d576040517f08c379a000000000000000000000000000000000000000000000000000000000815260040180806020018281038252603981526020018061127e6039913960400191505060405180910390fd5b611091816000808673ffffffffffffffffffffffffffffffffffffffff1673ffffffffffffffffffffffffffffffffffffffff168152602001908152602001600020600101546111d190919063ffffffff16565b6000808573ffffffffffffffffffffffffffffffffffffffff1673ffffffffffffffffffffffffffffffffffffffff1681526020019081526020016000206001018190555060018060008573ffffffffffffffffffffffffffffffffffffffff1673ffffffffffffffffffffffffffffffffffffffff16815260200190815260200160002060003373ffffffffffffffffffffffffffffffffffffffff1673ffffffffffffffffffffffffffffffffffffffff168152602001908152602001600020600084815260200190815260200160002060006101000a81548160ff021916908315150217905550505050565b60008060001b6000808473ffffffffffffffffffffffffffffffffffffffff1673ffffffffffffffffffffffffffffffffffffffff1681526020019081526020016000206000015414159050919050565b60008082840190508381101561124f576040517f08c379a000000000000000000000000000000000000000000000000000000000815260040180806020018281038252601b8152602001807f536166654d6174683a206164646974696f6e206f766572666c6f77000000000081525060200191505060405180910390fd5b8091505092915050565b6040518060600160405280600080191681526020016000815260200160008152509056fe4d756c7469706c65207472757374207570646174696f6e7320666f722073616d652070726f64756374206973206e6f7420616c6c6f7765642e4661726d657220636f6e7472616374206164647265737320616c7265616479207365742e54727573742076616c75652063616e6e6f74206265207a65726f20616e642063616e6e6f742062652067726561746572207468616e20354661726d657220636f6e74726163742061646472657373206d757374206e6f7420626520656d7074792ea265627a7a723158207356a7277bf63b9702e1055dcac60dfc17b98383ece463c35d3f842733fbcf6364736f6c63430005100032",
  "source": "pragma solidity >=0.5.0;\n\nimport \"./VendorInterface.sol\";\nimport \"../farmer/FarmerInterface.sol\";\n\nimport \"openzeppelin-solidity/contracts/math/SafeMath.sol\";\n\ncontract VendorContract is VendorInterface {\n\n    /* Usings */\n\n    using SafeMath for uint256;\n\n\n    /* Structs */\n    struct Vendor {\n        bytes32 ipfsHash;\n        uint256 trust;\n        uint256 reviewers;\n    }\n\n    /* Mappings */\n    mapping (address => Vendor) public vendors;\n\n    mapping (address => mapping (address => mapping (uint256 => bool))) public updateTrust;\n\n    /* Modifiers */\n\n    /* Modifier to check caller is a farmer. */\n    modifier onlyFarmer() {\n        require(\n            farmer.isFarmer(msg.sender),\n            \"Only farmer can call.\"\n        );\n        _;\n    }\n\n    /* Modifier to check caller is a vendor. */\n    modifier onlyVendor() {\n        require(\n            vendors[msg.sender].ipfsHash != bytes32(0),\n            \"Only vendor can call.\"\n        );\n        _;\n    }\n\n    /* Farmer contract address */\n    FarmerInterface public farmer;\n\n    /**\n     * @notice It sets farmer contract address\n     *              - called only once.\n     *              - _farmer contract must not be empty.\n     */\n    function setFarmerContractAddress(address _farmer)\n        public\n    {\n        require(\n            address(farmer) == address(0),\n            \"Farmer contract address already set.\"\n        );\n\n        require(\n            address(_farmer) != address(0),\n            \"Farmer contract address must not be empty.\"\n        );\n\n        farmer = FarmerInterface(_farmer);\n    }\n\n    /**\n     * Adds vendor to the mapping.\n     * @param _ipfsHash - ipfs hash of the vendor object.\n     */\n    function addVendor(\n        bytes32 _ipfsHash\n    )\n        public\n    {\n        require(\n            _ipfsHash != bytes32(0),\n            \"Ipfs hash should not be zero\"\n        );\n        require(\n            vendors[msg.sender].ipfsHash == bytes32(0),\n            \"Vendor already exists.\"\n        );\n        Vendor memory vendor = Vendor({\n            ipfsHash: _ipfsHash,\n            trust: 5,\n            reviewers: 0\n        });\n\n        vendors[msg.sender] = vendor;\n    }\n\n    function isVendor(address _vendor) external returns(bool) {\n        return vendors[_vendor].ipfsHash != bytes32(0);\n    }\n\n    /**\n     * Get vendor details\n     * @param _vendor - vendor address\n     * @return vendor ipfs hash\n     *         vendor trust\n     *         vendor reviewers\n     */\n    function getVendor(address _vendor)\n        public\n        view\n        returns (bytes32,uint256,uint256)\n    {\n        require(\n            _vendor != address(0),\n            \"Vendor address must not be 0\"\n        );\n        require(\n            vendors[_vendor].ipfsHash != bytes32(0),\n            \"Vendor must exist.\"\n        );\n\n        return (\n            vendors[_vendor].ipfsHash,\n            vendors[_vendor].trust,\n            vendors[_vendor].reviewers\n        );\n    }\n\n    // TO DO: check for product is sold and only purchased by _vendor\n    // can update trust for a particulat time period.\n    /**\n     * Update vendor's trust - only farmer can update\n     *                       - only after a successful trade.\n     * @param _vendor - vendor address\n     * @param _trust - trust to be update by\n     */\n    function updateVendorTrust(address _vendor, uint256 _productId, uint256 _trust)\n        public\n        onlyFarmer\n    {\n        require(\n            vendors[_vendor].ipfsHash != bytes32(0),\n            \"Vendor must exist.\"\n        );\n        require (\n            _trust > 0 && _trust <= 5,\n            \"Trust value cannot be zero and cannot be greater than 5\"\n        );\n        require(\n            farmer.getTradeStatus(_vendor, msg.sender, _productId) == true,\n            \"Trade must be successful.\"\n        );\n        require(\n            updateTrust[_vendor][msg.sender][_productId] == false,\n            \"Multiple trust updations for same product is not allowed.\"\n        );\n\n        vendors[_vendor].trust = vendors[_vendor].trust.add(_trust);\n        updateTrust[_vendor][msg.sender][_productId] = true;\n    }\n\n    function buyProduct(address _farmer, uint256 _productId)\n        public\n        onlyVendor\n    {\n        farmer.setProductAsSold(msg.sender, _farmer, _productId);\n    }\n}\n",
  "sourcePath": "/Users/OST/Documents/AgroTrade/agro-trade-contracts/contracts/vendor/VendorContract.sol",
  "compiler": {
    "name": "solc",
    "version": "0.5.16+commit.9c3226ce.Emscripten.clang"
  },
  "schemaVersion": "3.0.23",
  "updatedAt": "2020-04-20T14:13:28.036Z",
  "networkType": "ethereum",
  "devdoc": {
    "methods": {
      "addVendor(bytes32)": {
        "params": {
          "_ipfsHash": "- ipfs hash of the vendor object."
        }
      },
      "getVendor(address)": {
        "params": {
          "_vendor": "- vendor address"
        },
        "return": "vendor ipfs hash        vendor trust        vendor reviewers"
      },
      "updateVendorTrust(address,uint256,uint256)": {
        "params": {
          "_trust": "- trust to be update by",
          "_vendor": "- vendor address"
        }
      }
    }
  },
  "userdoc": {
    "methods": {
      "addVendor(bytes32)": {
        "notice": "Adds vendor to the mapping."
      },
      "getVendor(address)": {
        "notice": "Get vendor details"
      },
      "setFarmerContractAddress(address)": {
        "notice": "It sets farmer contract address             - called only once.             - _farmer contract must not be empty."
      },
      "updateVendorTrust(address,uint256,uint256)": {
        "notice": "Update vendor's trust - only farmer can update                      - only after a successful trade."
      }
    }
  }
}